{
  "_format": "hh-sol-artifact-1",
  "contractName": "MarketSentiment",
  "sourceName": "contracts/MarketSentiment.sol",
  "abi": [
    {
      "inputs": [],
      "stateMutability": "nonpayable",
      "type": "constructor"
    },
    {
      "anonymous": false,
      "inputs": [
        {
          "indexed": false,
          "internalType": "uint256",
          "name": "up",
          "type": "uint256"
        },
        {
          "indexed": false,
          "internalType": "uint256",
          "name": "down",
          "type": "uint256"
        },
        {
          "indexed": false,
          "internalType": "address",
          "name": "voter",
          "type": "address"
        },
        {
          "indexed": false,
          "internalType": "string",
          "name": "ticker",
          "type": "string"
        }
      ],
      "name": "tickerupdated",
      "type": "event"
    },
    {
      "inputs": [
        {
          "internalType": "string",
          "name": "_ticker",
          "type": "string"
        }
      ],
      "name": "addTicker",
      "outputs": [],
      "stateMutability": "nonpayable",
      "type": "function"
    },
    {
      "inputs": [
        {
          "internalType": "string",
          "name": "_ticker",
          "type": "string"
        }
      ],
      "name": "getVotes",
      "outputs": [
        {
          "internalType": "uint256",
          "name": "up",
          "type": "uint256"
        },
        {
          "internalType": "uint256",
          "name": "down",
          "type": "uint256"
        }
      ],
      "stateMutability": "view",
      "type": "function"
    },
    {
      "inputs": [],
      "name": "owner",
      "outputs": [
        {
          "internalType": "address",
          "name": "",
          "type": "address"
        }
      ],
      "stateMutability": "view",
      "type": "function"
    },
    {
      "inputs": [
        {
          "internalType": "uint256",
          "name": "",
          "type": "uint256"
        }
      ],
      "name": "tickersArray",
      "outputs": [
        {
          "internalType": "string",
          "name": "",
          "type": "string"
        }
      ],
      "stateMutability": "view",
      "type": "function"
    },
    {
      "inputs": [
        {
          "internalType": "string",
          "name": "_ticker",
          "type": "string"
        },
        {
          "internalType": "bool",
          "name": "_vote",
          "type": "bool"
        }
      ],
      "name": "vote",
      "outputs": [],
      "stateMutability": "nonpayable",
      "type": "function"
    }
  ],
  "bytecode": "0x608060405234801561001057600080fd5b50336000806101000a81548173ffffffffffffffffffffffffffffffffffffffff021916908373ffffffffffffffffffffffffffffffffffffffff160217905550610ccd806100606000396000f3fe608060405234801561001057600080fd5b50600436106100575760003560e01c806327d3410c1461005c5780635f6449ad1461007857806376152ab214610094578063805265e5146100c45780638da5cb5b146100f5575b600080fd5b6100766004803603810190610071919061070c565b610113565b005b610092600480360381019061008d91906106c3565b6102eb565b005b6100ae60048036038101906100a99190610768565b6103f8565b6040516100bb91906108b8565b60405180910390f35b6100de60048036038101906100d991906106c3565b6104a4565b6040516100ec92919061093a565b60405180910390f35b6100fd610562565b60405161010a919061089d565b60405180910390f35b6002826040516101239190610886565b908152602001604051809103902060000160009054906101000a900460ff16610181576040517f08c379a0000000000000000000000000000000000000000000000000000000008152600401610178906108da565b60405180910390fd5b6002826040516101919190610886565b908152602001604051809103902060030160003373ffffffffffffffffffffffffffffffffffffffff1673ffffffffffffffffffffffffffffffffffffffff16815260200190815260200160002060009054906101000a900460ff161561022d576040517f08c379a00000000000000000000000000000000000000000000000000000000081526004016102249061091a565b60405180910390fd5b80156102e65760016002836040516102459190610886565b908152602001604051809103902060030160003373ffffffffffffffffffffffffffffffffffffffff1673ffffffffffffffffffffffffffffffffffffffff16815260200190815260200160002060006101000a81548160ff0219169083151502179055506002826040516102ba9190610886565b908152602001604051809103902060010160008154809291906102dc90610acd565b91905055506102e7565b5b5050565b60008054906101000a900473ffffffffffffffffffffffffffffffffffffffff1673ffffffffffffffffffffffffffffffffffffffff163373ffffffffffffffffffffffffffffffffffffffff1614610379576040517f08c379a0000000000000000000000000000000000000000000000000000000008152600401610370906108fa565b60405180910390fd5b600060028260405161038b9190610886565b9081526020016040518091039020905060018160000160006101000a81548160ff0219169083151502179055506001829080600181540180825580915050600190039060005260206000200160009091909190915090805190602001906103f3929190610586565b505050565b6001818154811061040857600080fd5b90600052602060002001600091509050805461042390610a6a565b80601f016020809104026020016040519081016040528092919081815260200182805461044f90610a6a565b801561049c5780601f106104715761010080835404028352916020019161049c565b820191906000526020600020905b81548152906001019060200180831161047f57829003601f168201915b505050505081565b6000806002836040516104b79190610886565b908152602001604051809103902060000160009054906101000a900460ff16610515576040517f08c379a000000000000000000000000000000000000000000000000000000000815260040161050c906108da565b60405180910390fd5b6002836040516105259190610886565b9081526020016040518091039020600101546002846040516105479190610886565b90815260200160405180910390206002015491509150915091565b60008054906101000a900473ffffffffffffffffffffffffffffffffffffffff1681565b82805461059290610a6a565b90600052602060002090601f0160209004810192826105b457600085556105fb565b82601f106105cd57805160ff19168380011785556105fb565b828001600101855582156105fb579182015b828111156105fa5782518255916020019190600101906105df565b5b509050610608919061060c565b5090565b5b8082111561062557600081600090555060010161060d565b5090565b600061063c61063784610988565b610963565b90508281526020810184848401111561065857610657610ba8565b5b610663848285610a28565b509392505050565b60008135905061067a81610c69565b92915050565b600082601f83011261069557610694610ba3565b5b81356106a5848260208601610629565b91505092915050565b6000813590506106bd81610c80565b92915050565b6000602082840312156106d9576106d8610bb2565b5b600082013567ffffffffffffffff8111156106f7576106f6610bad565b5b61070384828501610680565b91505092915050565b6000806040838503121561072357610722610bb2565b5b600083013567ffffffffffffffff81111561074157610740610bad565b5b61074d85828601610680565b925050602061075e8582860161066b565b9150509250929050565b60006020828403121561077e5761077d610bb2565b5b600061078c848285016106ae565b91505092915050565b61079e816109e0565b82525050565b60006107af826109b9565b6107b981856109c4565b93506107c9818560208601610a37565b6107d281610bb7565b840191505092915050565b60006107e8826109b9565b6107f281856109d5565b9350610802818560208601610a37565b80840191505092915050565b600061081b601b836109c4565b915061082682610bc8565b602082019050919050565b600061083e6021836109c4565b915061084982610bf1565b604082019050919050565b60006108616016836109c4565b915061086c82610c40565b602082019050919050565b61088081610a1e565b82525050565b600061089282846107dd565b915081905092915050565b60006020820190506108b26000830184610795565b92915050565b600060208201905081810360008301526108d281846107a4565b905092915050565b600060208201905081810360008301526108f38161080e565b9050919050565b6000602082019050818103600083015261091381610831565b9050919050565b6000602082019050818103600083015261093381610854565b9050919050565b600060408201905061094f6000830185610877565b61095c6020830184610877565b9392505050565b600061096d61097e565b90506109798282610a9c565b919050565b6000604051905090565b600067ffffffffffffffff8211156109a3576109a2610b74565b5b6109ac82610bb7565b9050602081019050919050565b600081519050919050565b600082825260208201905092915050565b600081905092915050565b60006109eb826109fe565b9050919050565b60008115159050919050565b600073ffffffffffffffffffffffffffffffffffffffff82169050919050565b6000819050919050565b82818337600083830152505050565b60005b83811015610a55578082015181840152602081019050610a3a565b83811115610a64576000848401525b50505050565b60006002820490506001821680610a8257607f821691505b60208210811415610a9657610a95610b45565b5b50919050565b610aa582610bb7565b810181811067ffffffffffffffff82111715610ac457610ac3610b74565b5b80604052505050565b6000610ad882610a1e565b91507fffffffffffffffffffffffffffffffffffffffffffffffffffffffffffffffff821415610b0b57610b0a610b16565b5b600182019050919050565b7f4e487b7100000000000000000000000000000000000000000000000000000000600052601160045260246000fd5b7f4e487b7100000000000000000000000000000000000000000000000000000000600052602260045260246000fd5b7f4e487b7100000000000000000000000000000000000000000000000000000000600052604160045260246000fd5b600080fd5b600080fd5b600080fd5b600080fd5b6000601f19601f8301169050919050565b7f43616e277420766f7465206f6e207468697320636f696e207965740000000000600082015250565b7f4f6e6c7920746865206f776e65722063616e20637265617465207469636b657260008201527f7300000000000000000000000000000000000000000000000000000000000000602082015250565b7f596f75206861766520616c726561647920766f74656400000000000000000000600082015250565b610c72816109f2565b8114610c7d57600080fd5b50565b610c8981610a1e565b8114610c9457600080fd5b5056fea26469706673582212205c21f549db278b7f412759bca2bbfcda9751fef0a1aa6b628e4b93aa22d5a06f64736f6c63430008070033",
  "linkReferences": {},
  "deployedLinkReferences": {}
}